{
  "contractName": "LaBoiteADons",
  "abi": [
    {
      "inputs": [
        {
          "internalType": "address",
          "name": "_causesOrganAddress",
          "type": "address"
        }
      ],
      "payable": false,
      "stateMutability": "nonpayable",
      "type": "constructor"
    },
    {
      "anonymous": false,
      "inputs": [
        {
          "indexed": false,
          "internalType": "address",
          "name": "cause",
          "type": "address"
        },
        {
          "indexed": false,
          "internalType": "uint256",
          "name": "payment",
          "type": "uint256"
        }
      ],
      "name": "donated",
      "type": "event"
    },
    {
      "constant": true,
      "inputs": [],
      "name": "causesOrganAddress",
      "outputs": [
        {
          "internalType": "address",
          "name": "",
          "type": "address"
        }
      ],
      "payable": false,
      "stateMutability": "view",
      "type": "function"
    },
    {
      "constant": true,
      "inputs": [],
      "name": "owner",
      "outputs": [
        {
          "internalType": "address",
          "name": "",
          "type": "address"
        }
      ],
      "payable": false,
      "stateMutability": "view",
      "type": "function"
    },
    {
      "constant": false,
      "inputs": [
        {
          "internalType": "address payable[]",
          "name": "causes",
          "type": "address[]"
        },
        {
          "internalType": "uint256[]",
          "name": "shares",
          "type": "uint256[]"
        },
        {
          "internalType": "uint256",
          "name": "totalShares",
          "type": "uint256"
        }
      ],
      "name": "distribute",
      "outputs": [],
      "payable": true,
      "stateMutability": "payable",
      "type": "function"
    },
    {
      "constant": true,
      "inputs": [],
      "name": "getWebsite",
      "outputs": [
        {
          "internalType": "bytes32",
          "name": "ipfsHash",
          "type": "bytes32"
        },
        {
          "internalType": "uint8",
          "name": "hashFunction",
          "type": "uint8"
        },
        {
          "internalType": "uint8",
          "name": "hashSize",
          "type": "uint8"
        }
      ],
      "payable": false,
      "stateMutability": "view",
      "type": "function"
    },
    {
      "constant": false,
      "inputs": [
        {
          "internalType": "bytes32",
          "name": "_ipfsHash",
          "type": "bytes32"
        },
        {
          "internalType": "uint8",
          "name": "_hashFunction",
          "type": "uint8"
        },
        {
          "internalType": "uint8",
          "name": "_hashSize",
          "type": "uint8"
        }
      ],
      "name": "setWebsite",
      "outputs": [],
      "payable": false,
      "stateMutability": "nonpayable",
      "type": "function"
    },
    {
      "constant": false,
      "inputs": [
        {
          "internalType": "address",
          "name": "_causesOrganAddress",
          "type": "address"
        }
      ],
      "name": "setCausesOrgan",
      "outputs": [],
      "payable": false,
      "stateMutability": "nonpayable",
      "type": "function"
    }
  ],
  "bytecode": "0x608060405234801561001057600080fd5b50604051610fce380380610fce8339818101604052602081101561003357600080fd5b8101908080519060200190929190505050336000806101000a81548173ffffffffffffffffffffffffffffffffffffffff021916908373ffffffffffffffffffffffffffffffffffffffff16021790555080600160006101000a81548173ffffffffffffffffffffffffffffffffffffffff021916908373ffffffffffffffffffffffffffffffffffffffff1602179055506000801b6002819055506000600360006101000a81548160ff021916908360ff1602179055506000600360016101000a81548160ff021916908360ff16021790555050610eb7806101176000396000f3fe6080604052600436106100555760003560e01c8063020ca8c71461005a5780636e5fa18c146100ab5780638da5cb5b14610102578063c40094af14610159578063df51aa49146101ae578063f72df651146101f3575b600080fd5b34801561006657600080fd5b506100a96004803603602081101561007d57600080fd5b81019080803573ffffffffffffffffffffffffffffffffffffffff1690602001909291905050506102cb565b005b3480156100b757600080fd5b506100c0610365565b604051808273ffffffffffffffffffffffffffffffffffffffff1673ffffffffffffffffffffffffffffffffffffffff16815260200191505060405180910390f35b34801561010e57600080fd5b5061011761038b565b604051808273ffffffffffffffffffffffffffffffffffffffff1673ffffffffffffffffffffffffffffffffffffffff16815260200191505060405180910390f35b34801561016557600080fd5b506101ac6004803603606081101561017c57600080fd5b8101908080359060200190929190803560ff169060200190929190803560ff1690602001909291905050506103b0565b005b3480156101ba57600080fd5b506101c3610448565b604051808481526020018360ff1660ff1681526020018260ff1660ff168152602001935050505060405180910390f35b6102c96004803603606081101561020957600080fd5b810190808035906020019064010000000081111561022657600080fd5b82018360208201111561023857600080fd5b8035906020019184602083028401116401000000008311171561025a57600080fd5b90919293919293908035906020019064010000000081111561027b57600080fd5b82018360208201111561028d57600080fd5b803590602001918460208302840111640100000000831117156102af57600080fd5b90919293919293908035906020019092919050505061047b565b005b6000809054906101000a900473ffffffffffffffffffffffffffffffffffffffff1673ffffffffffffffffffffffffffffffffffffffff163373ffffffffffffffffffffffffffffffffffffffff1614156103625780600160006101000a81548173ffffffffffffffffffffffffffffffffffffffff021916908373ffffffffffffffffffffffffffffffffffffffff1602179055505b50565b600160009054906101000a900473ffffffffffffffffffffffffffffffffffffffff1681565b6000809054906101000a900473ffffffffffffffffffffffffffffffffffffffff1681565b6000809054906101000a900473ffffffffffffffffffffffffffffffffffffffff1673ffffffffffffffffffffffffffffffffffffffff163373ffffffffffffffffffffffffffffffffffffffff161415610443578260028190555081600360006101000a81548160ff021916908360ff16021790555080600360016101000a81548160ff021916908360ff1602179055505b505050565b6000806000600254600360009054906101000a900460ff16600360019054906101000a900460ff16925092509250909192565b8282905085859050146104d9576040517f08c379a0000000000000000000000000000000000000000000000000000000008152600401808060200182810382526030815260200180610e0a6030913960400191505060405180910390fd5b60008585905011610552576040517f08c379a00000000000000000000000000000000000000000000000000000000081526004018080602001828103825260188152602001807f4c61426f69746541446f6e733a206e6f206361757365732e000000000000000081525060200191505060405180910390fd5b600081116105c8576040517f08c379a00000000000000000000000000000000000000000000000000000000081526004018080602001828103825260188152602001807f4c61426f69746541446f6e733a206e6f207368617265732e000000000000000081525060200191505060405180910390fd5b6000341161063e576040517f08c379a00000000000000000000000000000000000000000000000000000000081526004018080602001828103825260208152602001807f4c61426f69746541446f6e733a206e6f2066756e64732072656365697665642e81525060200191505060405180910390fd5b6000809050600073ffffffffffffffffffffffffffffffffffffffff16600160009054906101000a900473ffffffffffffffffffffffffffffffffffffffff1673ffffffffffffffffffffffffffffffffffffffff1614156106eb576040517f08c379a0000000000000000000000000000000000000000000000000000000008152600401808060200182810382526023815260200180610e3a6023913960400191505060405180910390fd5b6000600160009054906101000a900473ffffffffffffffffffffffffffffffffffffffff1690508073ffffffffffffffffffffffffffffffffffffffff166390f2ee226040518163ffffffff1660e01b815260040160206040518083038186803b15801561075857600080fd5b505afa15801561076c573d6000803e3d6000fd5b505050506040513d602081101561078257600080fd5b81019080805190602001909291905050506107e8576040517f08c379a0000000000000000000000000000000000000000000000000000000008152600401808060200182810382526023815260200180610e3a6023913960400191505060405180910390fd5b60008090505b878790508110156109545760008273ffffffffffffffffffffffffffffffffffffffff16632f2bf18e8a8a8581811061082357fe5b9050602002013573ffffffffffffffffffffffffffffffffffffffff166040518263ffffffff1660e01b8152600401808273ffffffffffffffffffffffffffffffffffffffff1673ffffffffffffffffffffffffffffffffffffffff16815260200191505060206040518083038186803b1580156108a057600080fd5b505afa1580156108b4573d6000803e3d6000fd5b505050506040513d60208110156108ca57600080fd5b81019080805190602001909291905050501415610932576040517f08c379a0000000000000000000000000000000000000000000000000000000008152600401808060200182810382526026815260200180610da26026913960400191505060405180910390fd5b85858281811061093e57fe5b90506020020135830192508060010190506107ee565b508282146109ad576040517f08c379a000000000000000000000000000000000000000000000000000000000815260040180806020018281038252602f815260200180610d73602f913960400191505060405180910390fd5b600034905060008090505b88889050811015610bd15760008787838181106109d157fe5b9050602002013511610a2e576040517f08c379a0000000000000000000000000000000000000000000000000000000008152600401808060200182810382526021815260200180610de96021913960400191505060405180910390fd5b6000610a6786610a598a8a86818110610a4357fe5b9050602002013586610bdc90919063ffffffff16565b610c6290919063ffffffff16565b90506000811415610ac3576040517f08c379a0000000000000000000000000000000000000000000000000000000008152600401808060200182810382526026815260200180610e5d6026913960400191505060405180910390fd5b898983818110610acf57fe5b9050602002013573ffffffffffffffffffffffffffffffffffffffff1673ffffffffffffffffffffffffffffffffffffffff166108fc829081150290604051600060405180830381858888f19350505050158015610b31573d6000803e3d6000fd5b507f3ceb4bd0eed17b1cc8ff27bee9c294511535fb3082d5c058a3eada19d2e8e7568a8a84818110610b5f57fe5b9050602002013573ffffffffffffffffffffffffffffffffffffffff1682604051808373ffffffffffffffffffffffffffffffffffffffff1673ffffffffffffffffffffffffffffffffffffffff1681526020018281526020019250505060405180910390a1508060010190506109b8565b505050505050505050565b600080831415610bef5760009050610c5c565b6000828402905082848281610c0057fe5b0414610c57576040517f08c379a0000000000000000000000000000000000000000000000000000000008152600401808060200182810382526021815260200180610dc86021913960400191505060405180910390fd5b809150505b92915050565b6000610ca483836040518060400160405280601a81526020017f536166654d6174683a206469766973696f6e206279207a65726f000000000000815250610cac565b905092915050565b60008083118290610d58576040517f08c379a00000000000000000000000000000000000000000000000000000000081526004018080602001828103825283818151815260200191508051906020019080838360005b83811015610d1d578082015181840152602081019050610d02565b50505050905090810190601f168015610d4a5780820380516001836020036101000a031916815260200191505b509250505060405180910390fd5b506000838581610d6457fe5b04905080915050939250505056fe4c61426f69746541446f6e733a2073686172657320616e6420746f74616c20736861726573206d69736d617463682e4c61426f69746541446f6e733a206361757365206973206e6f7420726567697374657265642e536166654d6174683a206d756c7469706c69636174696f6e206f766572666c6f774c61426f69746541446f6e733a20636175736520686173206e6f207368617265734c61426f69746541446f6e733a2063617573657320616e6420736861726573206c656e677468206d69736d617463682e4c61426f69746541446f6e733a20636175736573206f7267616e206e6f74207365742e4c61426f69746541446f6e733a206361757365206973206e6f7420647565207061796d656e74a265627a7a723158204143411b5cd6ef68b9a17dab66908aa3907c8d4115f87e565b15d00264963c6964736f6c63430005100032",
  "source": "pragma solidity >=0.4.22 <0.7.0;\n\nimport \"@openzeppelin/contracts/math/SafeMath.sol\";\nimport \"@organigram/contracts/contracts/Organ.sol\";\n\ncontract LaBoiteADons {\n  using SafeMath for uint256;\n\n  event donated(address cause, uint256 payment);\n\n  address public owner;\n  address public causesOrganAddress;\n  bytes32 websiteIpfsHash;\n  uint8 websiteHashFunction;\n  uint8 websiteHashSize;\n\n  constructor(address _causesOrganAddress) public {\n    owner = msg.sender;\n    causesOrganAddress = _causesOrganAddress;\n    websiteIpfsHash = 0x0;\n    websiteHashFunction = 0;\n    websiteHashSize = 0;\n  }\n\n  modifier restricted() {\n    if (msg.sender == owner) _;\n  }\n\n  function distribute(address payable[] calldata causes, uint256[] calldata shares, uint256 totalShares)\n    external payable\n  {\n    require(causes.length == shares.length, \"LaBoiteADons: causes and shares length mismatch.\");\n    require(causes.length > 0, \"LaBoiteADons: no causes.\");\n    require(totalShares > 0, \"LaBoiteADons: no shares.\");\n    require(msg.value > 0, \"LaBoiteADons: no funds received.\");\n\n    uint256 _receivedTotalShares = 0;\n    require(causesOrganAddress != address(0), \"LaBoiteADons: causes organ not set.\");\n    Organ causesOrgan = Organ(causesOrganAddress);\n    require(causesOrgan.isOrgan(), \"LaBoiteADons: causes organ not set.\");\n    for (uint256 i = 0 ; i < causes.length ; ++i) {\n      // Check if causes are all registered in organ.\n      require(\n        causesOrgan.getEntryIndexForAddress(causes[i]) != 0,\n        \"LaBoiteADons: cause is not registered.\"\n      );\n      _receivedTotalShares += shares[i];\n    }\n    require(_receivedTotalShares == totalShares, \"LaBoiteADons: shares and total shares mismatch.\");\n\n    uint256 totalReceived = msg.value;\n    for (uint256 i = 0 ; i < causes.length ; ++i) {\n      require(shares[i] > 0, \"LaBoiteADons: cause has no shares\");\n      uint256 payment = totalReceived.mul(shares[i]).div(totalShares);\n      require(payment != 0, \"LaBoiteADons: cause is not due payment\");\n\n      causes[i].transfer(payment);\n      emit donated(causes[i], payment);\n    }\n  }\n\n  function getWebsite()\n    public view returns (bytes32 ipfsHash, uint8 hashFunction, uint8 hashSize)\n  {\n    return (websiteIpfsHash, websiteHashFunction, websiteHashSize);\n  }\n\n  function setWebsite(bytes32 _ipfsHash, uint8 _hashFunction, uint8 _hashSize)\n    external restricted\n  {\n    websiteIpfsHash = _ipfsHash;\n    websiteHashFunction = _hashFunction;\n    websiteHashSize = _hashSize;\n  }\n\n  function setCausesOrgan(address _causesOrganAddress)\n    external restricted\n  {\n    causesOrganAddress = _causesOrganAddress;\n  }\n}",
  "sourcePath": "/laboiteadons/contracts/LaBoiteADons.sol",
  "compiler": {
    "name": "solc",
    "version": "0.5.16+commit.9c3226ce.Emscripten.clang"
  },
  "schemaVersion": "3.0.23",
  "updatedAt": "2020-04-13T09:23:01.276Z",
  "networkType": "ethereum",
  "devdoc": {
    "methods": {}
  },
  "userdoc": {
    "methods": {}
  }
}