{
  "contractName": "LaBoiteADons",
  "abi": [
    {
      "inputs": [
        {
          "internalType": "address",
          "name": "_causesOrganAddress",
          "type": "address"
        }
      ],
      "payable": false,
      "stateMutability": "nonpayable",
      "type": "constructor"
    },
    {
      "anonymous": false,
      "inputs": [
        {
          "indexed": false,
          "internalType": "address",
          "name": "cause",
          "type": "address"
        },
        {
          "indexed": false,
          "internalType": "uint256",
          "name": "payment",
          "type": "uint256"
        }
      ],
      "name": "donated",
      "type": "event"
    },
    {
      "constant": true,
      "inputs": [],
      "name": "causesOrganAddress",
      "outputs": [
        {
          "internalType": "address",
          "name": "",
          "type": "address"
        }
      ],
      "payable": false,
      "stateMutability": "view",
      "type": "function"
    },
    {
      "constant": true,
      "inputs": [],
      "name": "owner",
      "outputs": [
        {
          "internalType": "address",
          "name": "",
          "type": "address"
        }
      ],
      "payable": false,
      "stateMutability": "view",
      "type": "function"
    },
    {
      "constant": false,
      "inputs": [
        {
          "internalType": "address payable[]",
          "name": "causes",
          "type": "address[]"
        },
        {
          "internalType": "uint256[]",
          "name": "shares",
          "type": "uint256[]"
        },
        {
          "internalType": "uint256",
          "name": "totalShares",
          "type": "uint256"
        }
      ],
      "name": "distribute",
      "outputs": [],
      "payable": true,
      "stateMutability": "payable",
      "type": "function"
    },
    {
      "constant": false,
      "inputs": [
        {
          "internalType": "address",
          "name": "_causesOrganAddress",
          "type": "address"
        }
      ],
      "name": "setCausesOrgan",
      "outputs": [],
      "payable": false,
      "stateMutability": "nonpayable",
      "type": "function"
    }
  ],
  "bytecode": "0x608060405234801561001057600080fd5b50604051610e11380380610e118339818101604052602081101561003357600080fd5b8101908080519060200190929190505050336000806101000a81548173ffffffffffffffffffffffffffffffffffffffff021916908373ffffffffffffffffffffffffffffffffffffffff16021790555080600160006101000a81548173ffffffffffffffffffffffffffffffffffffffff021916908373ffffffffffffffffffffffffffffffffffffffff16021790555050610d3c806100d56000396000f3fe60806040526004361061003f5760003560e01c8063020ca8c7146100445780636e5fa18c146100955780638da5cb5b146100ec578063f72df65114610143575b600080fd5b34801561005057600080fd5b506100936004803603602081101561006757600080fd5b81019080803573ffffffffffffffffffffffffffffffffffffffff16906020019092919050505061021b565b005b3480156100a157600080fd5b506100aa6102b5565b604051808273ffffffffffffffffffffffffffffffffffffffff1673ffffffffffffffffffffffffffffffffffffffff16815260200191505060405180910390f35b3480156100f857600080fd5b506101016102db565b604051808273ffffffffffffffffffffffffffffffffffffffff1673ffffffffffffffffffffffffffffffffffffffff16815260200191505060405180910390f35b6102196004803603606081101561015957600080fd5b810190808035906020019064010000000081111561017657600080fd5b82018360208201111561018857600080fd5b803590602001918460208302840111640100000000831117156101aa57600080fd5b9091929391929390803590602001906401000000008111156101cb57600080fd5b8201836020820111156101dd57600080fd5b803590602001918460208302840111640100000000831117156101ff57600080fd5b909192939192939080359060200190929190505050610300565b005b6000809054906101000a900473ffffffffffffffffffffffffffffffffffffffff1673ffffffffffffffffffffffffffffffffffffffff163373ffffffffffffffffffffffffffffffffffffffff1614156102b25780600160006101000a81548173ffffffffffffffffffffffffffffffffffffffff021916908373ffffffffffffffffffffffffffffffffffffffff1602179055505b50565b600160009054906101000a900473ffffffffffffffffffffffffffffffffffffffff1681565b6000809054906101000a900473ffffffffffffffffffffffffffffffffffffffff1681565b82829050858590501461035e576040517f08c379a0000000000000000000000000000000000000000000000000000000008152600401808060200182810382526030815260200180610c8f6030913960400191505060405180910390fd5b600085859050116103d7576040517f08c379a00000000000000000000000000000000000000000000000000000000081526004018080602001828103825260188152602001807f4c61426f69746541446f6e733a206e6f206361757365732e000000000000000081525060200191505060405180910390fd5b6000811161044d576040517f08c379a00000000000000000000000000000000000000000000000000000000081526004018080602001828103825260188152602001807f4c61426f69746541446f6e733a206e6f207368617265732e000000000000000081525060200191505060405180910390fd5b600034116104c3576040517f08c379a00000000000000000000000000000000000000000000000000000000081526004018080602001828103825260208152602001807f4c61426f69746541446f6e733a206e6f2066756e64732072656365697665642e81525060200191505060405180910390fd5b6000809050600073ffffffffffffffffffffffffffffffffffffffff16600160009054906101000a900473ffffffffffffffffffffffffffffffffffffffff1673ffffffffffffffffffffffffffffffffffffffff161415610570576040517f08c379a0000000000000000000000000000000000000000000000000000000008152600401808060200182810382526023815260200180610cbf6023913960400191505060405180910390fd5b6000600160009054906101000a900473ffffffffffffffffffffffffffffffffffffffff1690508073ffffffffffffffffffffffffffffffffffffffff166390f2ee226040518163ffffffff1660e01b815260040160206040518083038186803b1580156105dd57600080fd5b505afa1580156105f1573d6000803e3d6000fd5b505050506040513d602081101561060757600080fd5b810190808051906020019092919050505061066d576040517f08c379a0000000000000000000000000000000000000000000000000000000008152600401808060200182810382526023815260200180610cbf6023913960400191505060405180910390fd5b60008090505b878790508110156107d95760008273ffffffffffffffffffffffffffffffffffffffff16632f2bf18e8a8a858181106106a857fe5b9050602002013573ffffffffffffffffffffffffffffffffffffffff166040518263ffffffff1660e01b8152600401808273ffffffffffffffffffffffffffffffffffffffff1673ffffffffffffffffffffffffffffffffffffffff16815260200191505060206040518083038186803b15801561072557600080fd5b505afa158015610739573d6000803e3d6000fd5b505050506040513d602081101561074f57600080fd5b810190808051906020019092919050505014156107b7576040517f08c379a0000000000000000000000000000000000000000000000000000000008152600401808060200182810382526026815260200180610c276026913960400191505060405180910390fd5b8585828181106107c357fe5b9050602002013583019250806001019050610673565b50828214610832576040517f08c379a000000000000000000000000000000000000000000000000000000000815260040180806020018281038252602f815260200180610bf8602f913960400191505060405180910390fd5b600034905060008090505b88889050811015610a5657600087878381811061085657fe5b90506020020135116108b3576040517f08c379a0000000000000000000000000000000000000000000000000000000008152600401808060200182810382526021815260200180610c6e6021913960400191505060405180910390fd5b60006108ec866108de8a8a868181106108c857fe5b9050602002013586610a6190919063ffffffff16565b610ae790919063ffffffff16565b90506000811415610948576040517f08c379a0000000000000000000000000000000000000000000000000000000008152600401808060200182810382526026815260200180610ce26026913960400191505060405180910390fd5b89898381811061095457fe5b9050602002013573ffffffffffffffffffffffffffffffffffffffff1673ffffffffffffffffffffffffffffffffffffffff166108fc829081150290604051600060405180830381858888f193505050501580156109b6573d6000803e3d6000fd5b507f3ceb4bd0eed17b1cc8ff27bee9c294511535fb3082d5c058a3eada19d2e8e7568a8a848181106109e457fe5b9050602002013573ffffffffffffffffffffffffffffffffffffffff1682604051808373ffffffffffffffffffffffffffffffffffffffff1673ffffffffffffffffffffffffffffffffffffffff1681526020018281526020019250505060405180910390a15080600101905061083d565b505050505050505050565b600080831415610a745760009050610ae1565b6000828402905082848281610a8557fe5b0414610adc576040517f08c379a0000000000000000000000000000000000000000000000000000000008152600401808060200182810382526021815260200180610c4d6021913960400191505060405180910390fd5b809150505b92915050565b6000610b2983836040518060400160405280601a81526020017f536166654d6174683a206469766973696f6e206279207a65726f000000000000815250610b31565b905092915050565b60008083118290610bdd576040517f08c379a00000000000000000000000000000000000000000000000000000000081526004018080602001828103825283818151815260200191508051906020019080838360005b83811015610ba2578082015181840152602081019050610b87565b50505050905090810190601f168015610bcf5780820380516001836020036101000a031916815260200191505b509250505060405180910390fd5b506000838581610be957fe5b04905080915050939250505056fe4c61426f69746541446f6e733a2073686172657320616e6420746f74616c20736861726573206d69736d617463682e4c61426f69746541446f6e733a206361757365206973206e6f7420726567697374657265642e536166654d6174683a206d756c7469706c69636174696f6e206f766572666c6f774c61426f69746541446f6e733a20636175736520686173206e6f207368617265734c61426f69746541446f6e733a2063617573657320616e6420736861726573206c656e677468206d69736d617463682e4c61426f69746541446f6e733a20636175736573206f7267616e206e6f74207365742e4c61426f69746541446f6e733a206361757365206973206e6f7420647565207061796d656e74a265627a7a72315820b33d3b5fef3a6d91d1236b61461300201eecc422769479fa4fcd54c0ff2155c964736f6c63430005100032",
  "source": "pragma solidity >=0.4.22 <0.7.0;\n\nimport \"@openzeppelin/contracts/math/SafeMath.sol\";\nimport \"@organigram/contracts/contracts/Organ.sol\";\n\ncontract LaBoiteADons {\n  using SafeMath for uint256;\n\n  event donated(address cause, uint256 payment);\n\n  address public owner;\n  address public causesOrganAddress;\n\n  constructor(address _causesOrganAddress) public {\n    owner = msg.sender;\n    causesOrganAddress = _causesOrganAddress;\n  }\n\n  modifier restricted() {\n    if (msg.sender == owner) _;\n  }\n\n  function distribute(address payable[] calldata causes, uint256[] calldata shares, uint256 totalShares)\n    external payable\n  {\n    require(causes.length == shares.length, \"LaBoiteADons: causes and shares length mismatch.\");\n    require(causes.length > 0, \"LaBoiteADons: no causes.\");\n    require(totalShares > 0, \"LaBoiteADons: no shares.\");\n    require(msg.value > 0, \"LaBoiteADons: no funds received.\");\n\n    uint256 _receivedTotalShares = 0;\n    require(causesOrganAddress != address(0), \"LaBoiteADons: causes organ not set.\");\n    Organ causesOrgan = Organ(causesOrganAddress);\n    require(causesOrgan.isOrgan(), \"LaBoiteADons: causes organ not set.\");\n    for (uint256 i = 0 ; i < causes.length ; ++i) {\n      // Check if causes are all registered in organ.\n      require(\n        causesOrgan.getEntryIndexForAddress(causes[i]) != 0,\n        \"LaBoiteADons: cause is not registered.\"\n      );\n      _receivedTotalShares += shares[i];\n    }\n    require(_receivedTotalShares == totalShares, \"LaBoiteADons: shares and total shares mismatch.\");\n\n    uint256 totalReceived = msg.value;\n    for (uint256 i = 0 ; i < causes.length ; ++i) {\n      require(shares[i] > 0, \"LaBoiteADons: cause has no shares\");\n      uint256 payment = totalReceived.mul(shares[i]).div(totalShares);\n      require(payment != 0, \"LaBoiteADons: cause is not due payment\");\n\n      causes[i].transfer(payment);\n      emit donated(causes[i], payment);\n    }\n  }\n\n  function setCausesOrgan(address _causesOrganAddress)\n    external restricted\n  {\n    causesOrganAddress = _causesOrganAddress;\n  }\n}",
  "sourcePath": "/laboiteadons/contracts/LaBoiteADons.sol",
  "compiler": {
    "name": "solc",
    "version": "0.5.16+commit.9c3226ce.Emscripten.clang"
  },
  "schemaVersion": "3.0.23",
  "updatedAt": "2020-04-07T16:47:47.772Z",
  "networkType": "ethereum",
  "devdoc": {
    "methods": {}
  },
  "userdoc": {
    "methods": {}
  }
}