{
  "contractName": "Organ",
  "abi": [
    {
      "inputs": [
        {
          "internalType": "address",
          "name": "owner",
          "type": "address"
        },
        {
          "internalType": "bytes32",
          "name": "metadataIpfsHash",
          "type": "bytes32"
        },
        {
          "internalType": "uint8",
          "name": "metadataHashFunction",
          "type": "uint8"
        },
        {
          "internalType": "uint8",
          "name": "metadataHashSize",
          "type": "uint8"
        }
      ],
      "payable": false,
      "stateMutability": "nonpayable",
      "type": "constructor"
    },
    {
      "constant": true,
      "inputs": [],
      "name": "factory",
      "outputs": [
        {
          "internalType": "address",
          "name": "",
          "type": "address"
        }
      ],
      "payable": false,
      "stateMutability": "view",
      "type": "function"
    },
    {
      "constant": true,
      "inputs": [],
      "name": "getKelsenData",
      "outputs": [
        {
          "internalType": "bool",
          "name": "",
          "type": "bool"
        },
        {
          "internalType": "bool",
          "name": "",
          "type": "bool"
        },
        {
          "internalType": "uint8",
          "name": "",
          "type": "uint8"
        }
      ],
      "payable": false,
      "stateMutability": "view",
      "type": "function"
    },
    {
      "constant": true,
      "inputs": [],
      "name": "isOrgan",
      "outputs": [
        {
          "internalType": "bool",
          "name": "",
          "type": "bool"
        }
      ],
      "payable": false,
      "stateMutability": "view",
      "type": "function"
    },
    {
      "constant": true,
      "inputs": [],
      "name": "isProcedure",
      "outputs": [
        {
          "internalType": "bool",
          "name": "",
          "type": "bool"
        }
      ],
      "payable": false,
      "stateMutability": "view",
      "type": "function"
    },
    {
      "constant": true,
      "inputs": [],
      "name": "kelsenVersion",
      "outputs": [
        {
          "internalType": "uint8",
          "name": "",
          "type": "uint8"
        }
      ],
      "payable": false,
      "stateMutability": "view",
      "type": "function"
    },
    {
      "constant": true,
      "inputs": [],
      "name": "organData",
      "outputs": [
        {
          "internalType": "address",
          "name": "owner",
          "type": "address"
        },
        {
          "internalType": "bytes32",
          "name": "metadataIpfsHash",
          "type": "bytes32"
        },
        {
          "internalType": "uint8",
          "name": "metadataHashFunction",
          "type": "uint8"
        },
        {
          "internalType": "uint8",
          "name": "metadataHashSize",
          "type": "uint8"
        },
        {
          "internalType": "uint256",
          "name": "entriesCount",
          "type": "uint256"
        },
        {
          "internalType": "uint256",
          "name": "proceduresCount",
          "type": "uint256"
        }
      ],
      "payable": false,
      "stateMutability": "view",
      "type": "function"
    },
    {
      "constant": false,
      "inputs": [],
      "name": "deposit",
      "outputs": [],
      "payable": true,
      "stateMutability": "payable",
      "type": "function"
    },
    {
      "constant": false,
      "inputs": [],
      "name": "receive",
      "outputs": [],
      "payable": true,
      "stateMutability": "payable",
      "type": "function"
    },
    {
      "constant": false,
      "inputs": [
        {
          "internalType": "bytes32",
          "name": "ipfsHash",
          "type": "bytes32"
        },
        {
          "internalType": "uint8",
          "name": "hashFunction",
          "type": "uint8"
        },
        {
          "internalType": "uint8",
          "name": "hashSize",
          "type": "uint8"
        }
      ],
      "name": "updateMetadata",
      "outputs": [],
      "payable": false,
      "stateMutability": "nonpayable",
      "type": "function"
    },
    {
      "constant": false,
      "inputs": [
        {
          "internalType": "address payable",
          "name": "to",
          "type": "address"
        },
        {
          "internalType": "uint256",
          "name": "value",
          "type": "uint256"
        }
      ],
      "name": "withdraw",
      "outputs": [],
      "payable": false,
      "stateMutability": "nonpayable",
      "type": "function"
    },
    {
      "constant": false,
      "inputs": [
        {
          "internalType": "address",
          "name": "procedure",
          "type": "address"
        },
        {
          "internalType": "uint8",
          "name": "permissions",
          "type": "uint8"
        }
      ],
      "name": "addProcedure",
      "outputs": [],
      "payable": false,
      "stateMutability": "nonpayable",
      "type": "function"
    },
    {
      "constant": false,
      "inputs": [
        {
          "internalType": "address",
          "name": "procedure",
          "type": "address"
        }
      ],
      "name": "removeProcedure",
      "outputs": [],
      "payable": false,
      "stateMutability": "nonpayable",
      "type": "function"
    },
    {
      "constant": false,
      "inputs": [
        {
          "internalType": "address",
          "name": "oldProcedure",
          "type": "address"
        },
        {
          "internalType": "address",
          "name": "newProcedure",
          "type": "address"
        },
        {
          "internalType": "uint8",
          "name": "permissions",
          "type": "uint8"
        }
      ],
      "name": "replaceProcedure",
      "outputs": [],
      "payable": false,
      "stateMutability": "nonpayable",
      "type": "function"
    },
    {
      "constant": false,
      "inputs": [
        {
          "internalType": "address payable",
          "name": "addr",
          "type": "address"
        },
        {
          "internalType": "bytes32",
          "name": "ipfsHash",
          "type": "bytes32"
        },
        {
          "internalType": "uint8",
          "name": "hashFunction",
          "type": "uint8"
        },
        {
          "internalType": "uint8",
          "name": "hashSize",
          "type": "uint8"
        }
      ],
      "name": "addEntry",
      "outputs": [
        {
          "internalType": "uint256",
          "name": "index",
          "type": "uint256"
        }
      ],
      "payable": false,
      "stateMutability": "nonpayable",
      "type": "function"
    },
    {
      "constant": false,
      "inputs": [
        {
          "internalType": "uint256",
          "name": "index",
          "type": "uint256"
        }
      ],
      "name": "removeEntry",
      "outputs": [],
      "payable": false,
      "stateMutability": "nonpayable",
      "type": "function"
    },
    {
      "constant": false,
      "inputs": [
        {
          "internalType": "uint256",
          "name": "index",
          "type": "uint256"
        },
        {
          "internalType": "address payable",
          "name": "addr",
          "type": "address"
        },
        {
          "internalType": "bytes32",
          "name": "ipfsHash",
          "type": "bytes32"
        },
        {
          "internalType": "uint8",
          "name": "hashFunction",
          "type": "uint8"
        },
        {
          "internalType": "uint8",
          "name": "hashSize",
          "type": "uint8"
        }
      ],
      "name": "replaceEntry",
      "outputs": [],
      "payable": false,
      "stateMutability": "nonpayable",
      "type": "function"
    },
    {
      "constant": true,
      "inputs": [
        {
          "internalType": "address",
          "name": "addr",
          "type": "address"
        }
      ],
      "name": "getPermissions",
      "outputs": [
        {
          "internalType": "uint8",
          "name": "permissions",
          "type": "uint8"
        },
        {
          "internalType": "bool",
          "name": "canAddProcedure",
          "type": "bool"
        },
        {
          "internalType": "bool",
          "name": "canRemoveProcedure",
          "type": "bool"
        },
        {
          "internalType": "bool",
          "name": "canAddEntry",
          "type": "bool"
        },
        {
          "internalType": "bool",
          "name": "canRemoveEntry",
          "type": "bool"
        },
        {
          "internalType": "bool",
          "name": "canWithdraw",
          "type": "bool"
        },
        {
          "internalType": "bool",
          "name": "canDeposit",
          "type": "bool"
        }
      ],
      "payable": false,
      "stateMutability": "view",
      "type": "function"
    },
    {
      "constant": true,
      "inputs": [],
      "name": "getEntriesLength",
      "outputs": [
        {
          "internalType": "uint256",
          "name": "length",
          "type": "uint256"
        }
      ],
      "payable": false,
      "stateMutability": "view",
      "type": "function"
    },
    {
      "constant": true,
      "inputs": [
        {
          "internalType": "address",
          "name": "addr",
          "type": "address"
        }
      ],
      "name": "getEntryIndexForAddress",
      "outputs": [
        {
          "internalType": "uint256",
          "name": "index",
          "type": "uint256"
        }
      ],
      "payable": false,
      "stateMutability": "view",
      "type": "function"
    },
    {
      "constant": true,
      "inputs": [
        {
          "internalType": "uint256",
          "name": "index",
          "type": "uint256"
        }
      ],
      "name": "getEntry",
      "outputs": [
        {
          "internalType": "address payable",
          "name": "addr",
          "type": "address"
        },
        {
          "internalType": "bytes32",
          "name": "ipfsHash",
          "type": "bytes32"
        },
        {
          "internalType": "uint8",
          "name": "hashFunction",
          "type": "uint8"
        },
        {
          "internalType": "uint8",
          "name": "hashSize",
          "type": "uint8"
        }
      ],
      "payable": false,
      "stateMutability": "view",
      "type": "function"
    },
    {
      "constant": true,
      "inputs": [],
      "name": "getProceduresLength",
      "outputs": [
        {
          "internalType": "uint256",
          "name": "length",
          "type": "uint256"
        }
      ],
      "payable": false,
      "stateMutability": "view",
      "type": "function"
    },
    {
      "constant": true,
      "inputs": [
        {
          "internalType": "address",
          "name": "addr",
          "type": "address"
        }
      ],
      "name": "getProcedureIndexForAddress",
      "outputs": [
        {
          "internalType": "uint256",
          "name": "index",
          "type": "uint256"
        }
      ],
      "payable": false,
      "stateMutability": "view",
      "type": "function"
    },
    {
      "constant": true,
      "inputs": [
        {
          "internalType": "uint256",
          "name": "index",
          "type": "uint256"
        }
      ],
      "name": "getProcedure",
      "outputs": [
        {
          "internalType": "address",
          "name": "addr",
          "type": "address"
        }
      ],
      "payable": false,
      "stateMutability": "view",
      "type": "function"
    }
  ],
  "bytecode": "0x608060405260036000806101000a81548160ff021916908360ff16021790555034801561002b57600080fd5b506040516115383803806115388339818101604052608081101561004e57600080fd5b81019080805190602001909291908051906020019092919080519060200190929190805190602001909291905050506001600081600060016101000a81548160ff02191690831515021790555080600060026101000a81548160ff021916908315150217905550505033600b60006101000a81548173ffffffffffffffffffffffffffffffffffffffff021916908373ffffffffffffffffffffffffffffffffffffffff160217905550600173__OrganLibrary__________________________6374771eb49091868686866040518663ffffffff1660e01b8152600401808681526020018573ffffffffffffffffffffffffffffffffffffffff1673ffffffffffffffffffffffffffffffffffffffff1681526020018481526020018360ff1660ff1681526020018260ff1660ff1681526020019550505050505060006040518083038186803b1580156101a257600080fd5b505af41580156101b6573d6000803e3d6000fd5b505050505050505061136b806101cd6000396000f3fe6080604052600436106101405760003560e01c806390f2ee22116100b6578063c91ebea81161006f578063c91ebea814610761578063d0e30db014610790578063d28fbf0a1461079a578063dc82537414610815578063f3fef3a31461087a578063ffdab909146108d557610140565b806390f2ee221461058b57806391bdfe63146105ba578063a0d10c9a14610639578063a3e76c0f14610664578063bae78d7b1461066e578063c45a01551461070a57610140565b806339c2ae701161010857806339c2ae70146103785780635185ee3f146103cd5780635676c77d14610453578063759913d6146104d15780637a7ce65c1461050257806390b137e91461052d57610140565b8063160a7925146101455780631715f4de146101f257806319b9404c1461027b578063249abcf7146102cc5780632f2bf18e14610313575b600080fd5b34801561015157600080fd5b506101946004803603602081101561016857600080fd5b81019080803573ffffffffffffffffffffffffffffffffffffffff169060200190929190505050610910565b604051808860ff1660ff16815260200187151515158152602001861515151581526020018515151515815260200184151515158152602001831515151581526020018215151515815260200197505050505050505060405180910390f35b3480156101fe57600080fd5b506102656004803603608081101561021557600080fd5b81019080803573ffffffffffffffffffffffffffffffffffffffff16906020019092919080359060200190929190803560ff169060200190929190803560ff1690602001909291905050506109bd565b6040518082815260200191505060405180910390f35b34801561028757600080fd5b506102ca6004803603602081101561029e57600080fd5b81019080803573ffffffffffffffffffffffffffffffffffffffff169060200190929190505050610aae565b005b3480156102d857600080fd5b506102e1610b4f565b6040518084151515158152602001831515151581526020018260ff1660ff168152602001935050505060405180910390f35b34801561031f57600080fd5b506103626004803603602081101561033657600080fd5b81019080803573ffffffffffffffffffffffffffffffffffffffff169060200190929190505050610b8d565b6040518082815260200191505060405180910390f35b34801561038457600080fd5b506103cb6004803603606081101561039b57600080fd5b8101908080359060200190929190803560ff169060200190929190803560ff169060200190929190505050610bd9565b005b3480156103d957600080fd5b506103e2610c6c565b604051808773ffffffffffffffffffffffffffffffffffffffff1673ffffffffffffffffffffffffffffffffffffffff1681526020018681526020018560ff1660ff1681526020018460ff1660ff168152602001838152602001828152602001965050505050505060405180910390f35b34801561045f57600080fd5b506104cf6004803603606081101561047657600080fd5b81019080803573ffffffffffffffffffffffffffffffffffffffff169060200190929190803573ffffffffffffffffffffffffffffffffffffffff169060200190929190803560ff169060200190929190505050610cd0565b005b3480156104dd57600080fd5b506104e6610db5565b604051808260ff1660ff16815260200191505060405180910390f35b34801561050e57600080fd5b50610517610dc7565b6040518082815260200191505060405180910390f35b34801561053957600080fd5b506105896004803603604081101561055057600080fd5b81019080803573ffffffffffffffffffffffffffffffffffffffff169060200190929190803560ff169060200190929190505050610dd7565b005b34801561059757600080fd5b506105a0610eab565b604051808215151515815260200191505060405180910390f35b3480156105c657600080fd5b50610637600480360360a08110156105dd57600080fd5b8101908080359060200190929190803573ffffffffffffffffffffffffffffffffffffffff16906020019092919080359060200190929190803560ff169060200190929190803560ff169060200190929190505050610ebe565b005b34801561064557600080fd5b5061064e610f8f565b6040518082815260200191505060405180910390f35b61066c610f9f565b005b34801561067a57600080fd5b506106a76004803603602081101561069157600080fd5b810190808035906020019092919050505061100b565b604051808573ffffffffffffffffffffffffffffffffffffffff1673ffffffffffffffffffffffffffffffffffffffff1681526020018481526020018360ff1660ff1681526020018260ff1660ff16815260200194505050505060405180910390f35b34801561071657600080fd5b5061071f6110e2565b604051808273ffffffffffffffffffffffffffffffffffffffff1673ffffffffffffffffffffffffffffffffffffffff16815260200191505060405180910390f35b34801561076d57600080fd5b50610776611108565b604051808215151515815260200191505060405180910390f35b61079861111b565b005b3480156107a657600080fd5b506107d3600480360360208110156107bd57600080fd5b8101908080359060200190929190505050611187565b604051808273ffffffffffffffffffffffffffffffffffffffff1673ffffffffffffffffffffffffffffffffffffffff16815260200191505060405180910390f35b34801561082157600080fd5b506108646004803603602081101561083857600080fd5b81019080803573ffffffffffffffffffffffffffffffffffffffff1690602001909291905050506111cb565b6040518082815260200191505060405180910390f35b34801561088657600080fd5b506108d36004803603604081101561089d57600080fd5b81019080803573ffffffffffffffffffffffffffffffffffffffff16906020019092919080359060200190929190505050611217565b005b3480156108e157600080fd5b5061090e600480360360208110156108f857600080fd5b81019080803590602001909291905050506112c1565b005b6000806000806000806000600160070160008973ffffffffffffffffffffffffffffffffffffffff1673ffffffffffffffffffffffffffffffffffffffff16815260200190815260200160002060009054906101000a900460ff16965086608080891660ff16146040808a1660ff16146008808b1660ff16146004808c1660ff16146002808d1660ff16146001808e1660ff16149650965096509650965096509650919395979092949650565b6000600173__OrganLibrary__________________________6319ddbc8c9091878787876040518663ffffffff1660e01b8152600401808681526020018573ffffffffffffffffffffffffffffffffffffffff1673ffffffffffffffffffffffffffffffffffffffff1681526020018481526020018360ff1660ff1681526020018260ff1660ff1681526020019550505050505060206040518083038186803b158015610a6957600080fd5b505af4158015610a7d573d6000803e3d6000fd5b505050506040513d6020811015610a9357600080fd5b81019080805190602001909291905050509050949350505050565b600173__OrganLibrary__________________________633974fa339091836040518363ffffffff1660e01b8152600401808381526020018273ffffffffffffffffffffffffffffffffffffffff1673ffffffffffffffffffffffffffffffffffffffff1681526020019250505060006040518083038186803b158015610b3457600080fd5b505af4158015610b48573d6000803e3d6000fd5b5050505050565b60008060008060019054906101000a900460ff16600060029054906101000a900460ff166000809054906101000a900460ff16925092509250909192565b6000600160080160008373ffffffffffffffffffffffffffffffffffffffff1673ffffffffffffffffffffffffffffffffffffffff168152602001908152602001600020549050919050565b600173__OrganLibrary__________________________63f59263df90918585856040518563ffffffff1660e01b8152600401808581526020018481526020018360ff1660ff1681526020018260ff1660ff16815260200194505050505060006040518083038186803b158015610c4f57600080fd5b505af4158015610c63573d6000803e3d6000fd5b50505050505050565b60018060000160009054906101000a900473ffffffffffffffffffffffffffffffffffffffff16908060010154908060020160009054906101000a900460ff16908060020160019054906101000a900460ff16908060030154908060040154905086565b600173__OrganLibrary__________________________63edbe5f4a90918585856040518563ffffffff1660e01b8152600401808581526020018473ffffffffffffffffffffffffffffffffffffffff1673ffffffffffffffffffffffffffffffffffffffff1681526020018373ffffffffffffffffffffffffffffffffffffffff1673ffffffffffffffffffffffffffffffffffffffff1681526020018260ff1660ff16815260200194505050505060006040518083038186803b158015610d9857600080fd5b505af4158015610dac573d6000803e3d6000fd5b50505050505050565b6000809054906101000a900460ff1681565b6000600160060180549050905090565b600173__OrganLibrary__________________________63837ad9ee909184846040518463ffffffff1660e01b8152600401808481526020018373ffffffffffffffffffffffffffffffffffffffff1673ffffffffffffffffffffffffffffffffffffffff1681526020018260ff1660ff168152602001935050505060206040518083038186803b158015610e6b57600080fd5b505af4158015610e7f573d6000803e3d6000fd5b505050506040513d6020811015610e9557600080fd5b8101908080519060200190929190505050505050565b600060019054906101000a900460ff1681565b600173__OrganLibrary__________________________630ac08b49909187878787876040518763ffffffff1660e01b8152600401808781526020018681526020018573ffffffffffffffffffffffffffffffffffffffff1673ffffffffffffffffffffffffffffffffffffffff1681526020018481526020018360ff1660ff1681526020018260ff1660ff168152602001965050505050505060006040518083038186803b158015610f7057600080fd5b505af4158015610f84573d6000803e3d6000fd5b505050505050505050565b6000600160050180549050905090565b600173__OrganLibrary__________________________63b8bf0edf90916040518263ffffffff1660e01b81526004018082815260200191505060006040518083038186803b158015610ff157600080fd5b505af4158015611005573d6000803e3d6000fd5b50505050565b6000806000806001600501858154811061102157fe5b906000526020600020906003020160000160009054906101000a900473ffffffffffffffffffffffffffffffffffffffff166001600501868154811061106357fe5b9060005260206000209060030201600101546001600501878154811061108557fe5b906000526020600020906003020160020160009054906101000a900460ff16600160050188815481106110b457fe5b906000526020600020906003020160020160019054906101000a900460ff1693509350935093509193509193565b600b60009054906101000a900473ffffffffffffffffffffffffffffffffffffffff1681565b600060029054906101000a900460ff1681565b600173__OrganLibrary__________________________63b8bf0edf90916040518263ffffffff1660e01b81526004018082815260200191505060006040518083038186803b15801561116d57600080fd5b505af4158015611181573d6000803e3d6000fd5b50505050565b60006001600601828154811061119957fe5b9060005260206000200160009054906101000a900473ffffffffffffffffffffffffffffffffffffffff169050919050565b6000600160090160008373ffffffffffffffffffffffffffffffffffffffff1673ffffffffffffffffffffffffffffffffffffffff168152602001908152602001600020549050919050565b600173__OrganLibrary__________________________63869d0626909184846040518463ffffffff1660e01b8152600401808481526020018373ffffffffffffffffffffffffffffffffffffffff1673ffffffffffffffffffffffffffffffffffffffff168152602001828152602001935050505060006040518083038186803b1580156112a557600080fd5b505af41580156112b9573d6000803e3d6000fd5b505050505050565b600173__OrganLibrary__________________________6387fc51629091836040518363ffffffff1660e01b8152600401808381526020018281526020019250505060006040518083038186803b15801561131b57600080fd5b505af415801561132f573d6000803e3d6000fd5b505050505056fea265627a7a723158202be388dd45c4aa4802d7490cb8601a6dbd421b75fb75b80998cbcaf6f558a88764736f6c63430005100032",
  "source": "pragma solidity >=0.4.22 <0.7.0;\n\n/// @title Standard Organigr.am Contracts Organ contract.\n\nimport \"./Kelsen.sol\";\nimport \"./libraries/organLibrary.sol\";\n\ncontract Organ is Kelsen(true,false) {\n\n    // Linking to Organ library.\n    using OrganLibrary for OrganLibrary.OrganData;\n    OrganLibrary.OrganData public organData;\n\n    address public factory;\n\n    /*\n        Organ management.\n    */\n\n    // Constructor.\n    constructor(address owner, bytes32 metadataIpfsHash, uint8 metadataHashFunction, uint8 metadataHashSize)\n        public\n    {\n        factory = msg.sender;\n        organData.init(owner, metadataIpfsHash, metadataHashFunction, metadataHashSize);\n    }\n\n    // Receiving funds.\n    function deposit() external payable {\n        organData.deposit();\n    }\n\n    function receive() external payable {\n        organData.deposit();\n    }\n\n    function updateMetadata(bytes32 ipfsHash, uint8 hashFunction, uint8 hashSize)\n        public\n    {\n        organData.updateMetadata(ipfsHash, hashFunction, hashSize);\n    }\n\n    function withdraw(address payable to, uint value)\n        public\n    {\n        organData.withdraw(to, value);\n    }\n\n    /*\n        Procedures management.\n    */\n\n    function addProcedure(address procedure, uint8 permissions)\n        public\n    {\n        organData.addProcedure(procedure, permissions);\n    }\n\n    function removeProcedure(address procedure)\n        public\n    {\n        organData.removeProcedure(procedure);\n    }\n\n    function replaceProcedure(address oldProcedure, address newProcedure, uint8 permissions)\n        public\n    {\n        organData.replaceProcedure(oldProcedure, newProcedure, permissions);\n    }\n\n    /*\n        Entries management.\n    */\n\n    function addEntry(address payable addr, bytes32 ipfsHash, uint8 hashFunction, uint8 hashSize)\n        public returns (uint index)\n    {\n        return organData.addEntry(addr, ipfsHash, hashFunction, hashSize);\n    }\n\n    function removeEntry(uint index)\n        public\n    {\n       organData.removeEntry(index);\n    }\n\n    function replaceEntry(uint index, address payable addr, bytes32 ipfsHash, uint8 hashFunction, uint8 hashSize)\n        public\n    {\n       organData.replaceEntry(index, addr, ipfsHash, hashFunction, hashSize);\n    }\n\n    /*\n        Utilities for contracts.\n    */\n\n    function getPermissions(address addr)\n        public view\n        returns (\n            uint8 permissions,\n            bool canAddProcedure, bool canRemoveProcedure,\n            bool canAddEntry, bool canRemoveEntry,\n            bool canWithdraw, bool canDeposit\n        )\n    {\n        permissions = organData.permissions[addr];\n        return (\n            permissions,\n            permissions & 0x80 == 0x80,\n            permissions & 0x40 == 0x40,\n            permissions & 0x08 == 0x08,\n            permissions & 0x04 == 0x04,\n            permissions & 0x02 == 0x02,\n            permissions & 0x01 == 0x01\n        );\n    }\n\n    function getEntriesLength()\n        public view returns (uint length)\n    {\n        return organData.entries.length;\n    }\n\n    function getEntryIndexForAddress(address addr)\n        public view returns (uint index)\n    {\n        return organData.addressIndexInEntries[addr];\n    }\n\n    function getEntry(uint index)\n        public view\n        returns (address payable addr, bytes32 ipfsHash, uint8 hashFunction, uint8 hashSize)\n    {\n        return (\n            organData.entries[index].addr,\n            organData.entries[index].ipfsHash,\n            organData.entries[index].hashFunction,\n            organData.entries[index].hashSize\n        );\n    }\n\n    function getProceduresLength()\n        public view returns (uint length)\n    {\n        return organData.procedures.length;\n    }\n\n    function getProcedureIndexForAddress(address addr)\n        public view returns (uint index)\n    {\n        return organData.addressIndexInProcedures[addr];\n    }\n\n    function getProcedure(uint index)\n        public view\n        returns (address addr)\n    {\n        return organData.procedures[index];\n    }\n}",
  "sourcePath": "@organigram/contracts/contracts/Organ.sol",
  "compiler": {
    "name": "solc",
    "version": "0.5.16+commit.9c3226ce.Emscripten.clang"
  },
  "schemaVersion": "3.0.23",
  "updatedAt": "2020-04-07T15:55:49.325Z",
  "devdoc": {
    "methods": {}
  },
  "userdoc": {
    "methods": {}
  }
}